{
  "contractName": "Main",
  "abi": [
    {
      "constant": true,
      "inputs": [
        {
          "name": "",
          "type": "address"
        },
        {
          "name": "",
          "type": "uint256"
        }
      ],
      "name": "user3",
      "outputs": [
        {
          "name": "name",
          "type": "string"
        },
        {
          "name": "hash",
          "type": "string"
        }
      ],
      "payable": false,
      "stateMutability": "view",
      "type": "function",
      "signature": "0x035b4cbc"
    },
    {
      "constant": true,
      "inputs": [
        {
          "name": "",
          "type": "address"
        },
        {
          "name": "",
          "type": "uint256"
        }
      ],
      "name": "user",
      "outputs": [
        {
          "name": "account_name",
          "type": "string"
        },
        {
          "name": "password",
          "type": "string"
        }
      ],
      "payable": false,
      "stateMutability": "view",
      "type": "function",
      "signature": "0x14feaa9d"
    },
    {
      "constant": true,
      "inputs": [
        {
          "name": "",
          "type": "address"
        }
      ],
      "name": "user_login",
      "outputs": [
        {
          "name": "",
          "type": "string"
        }
      ],
      "payable": false,
      "stateMutability": "view",
      "type": "function",
      "signature": "0x5fff3c5f"
    },
    {
      "constant": true,
      "inputs": [
        {
          "name": "",
          "type": "address"
        },
        {
          "name": "",
          "type": "uint256"
        }
      ],
      "name": "user2",
      "outputs": [
        {
          "name": "title",
          "type": "string"
        },
        {
          "name": "text",
          "type": "string"
        }
      ],
      "payable": false,
      "stateMutability": "view",
      "type": "function",
      "signature": "0x7d8aad36"
    },
    {
      "constant": true,
      "inputs": [
        {
          "name": "",
          "type": "address"
        }
      ],
      "name": "user_check",
      "outputs": [
        {
          "name": "",
          "type": "bool"
        }
      ],
      "payable": false,
      "stateMutability": "view",
      "type": "function",
      "signature": "0xbde74b5f"
    },
    {
      "constant": false,
      "inputs": [
        {
          "name": "_password",
          "type": "string"
        }
      ],
      "name": "signup",
      "outputs": [],
      "payable": false,
      "stateMutability": "nonpayable",
      "type": "function",
      "signature": "0x519c6377"
    },
    {
      "constant": true,
      "inputs": [],
      "name": "login",
      "outputs": [
        {
          "name": "",
          "type": "string"
        }
      ],
      "payable": false,
      "stateMutability": "view",
      "type": "function",
      "signature": "0xb34e97e8"
    },
    {
      "constant": false,
      "inputs": [
        {
          "name": "_name",
          "type": "string"
        },
        {
          "name": "_id",
          "type": "string"
        }
      ],
      "name": "add_id",
      "outputs": [],
      "payable": false,
      "stateMutability": "nonpayable",
      "type": "function",
      "signature": "0xa3136044"
    },
    {
      "constant": false,
      "inputs": [
        {
          "name": "_title",
          "type": "string"
        },
        {
          "name": "_text",
          "type": "string"
        }
      ],
      "name": "add_text",
      "outputs": [],
      "payable": false,
      "stateMutability": "nonpayable",
      "type": "function",
      "signature": "0x6b030e59"
    },
    {
      "constant": false,
      "inputs": [
        {
          "name": "_hash",
          "type": "string"
        },
        {
          "name": "_name",
          "type": "string"
        }
      ],
      "name": "add_files",
      "outputs": [],
      "payable": false,
      "stateMutability": "nonpayable",
      "type": "function",
      "signature": "0x6efe6078"
    },
    {
      "constant": true,
      "inputs": [],
      "name": "check",
      "outputs": [
        {
          "name": "",
          "type": "bool"
        }
      ],
      "payable": false,
      "stateMutability": "view",
      "type": "function",
      "signature": "0x919840ad"
    },
    {
      "constant": true,
      "inputs": [
        {
          "name": "i",
          "type": "uint256"
        }
      ],
      "name": "get_accountname",
      "outputs": [
        {
          "name": "",
          "type": "string"
        }
      ],
      "payable": false,
      "stateMutability": "view",
      "type": "function",
      "signature": "0xdd12cf20"
    },
    {
      "constant": true,
      "inputs": [
        {
          "name": "i",
          "type": "uint256"
        }
      ],
      "name": "get_password",
      "outputs": [
        {
          "name": "",
          "type": "string"
        }
      ],
      "payable": false,
      "stateMutability": "view",
      "type": "function",
      "signature": "0xd04ae785"
    },
    {
      "constant": true,
      "inputs": [
        {
          "name": "i",
          "type": "uint256"
        }
      ],
      "name": "get_title",
      "outputs": [
        {
          "name": "",
          "type": "string"
        }
      ],
      "payable": false,
      "stateMutability": "view",
      "type": "function",
      "signature": "0xc3edb3fa"
    },
    {
      "constant": true,
      "inputs": [
        {
          "name": "i",
          "type": "uint256"
        }
      ],
      "name": "get_text",
      "outputs": [
        {
          "name": "",
          "type": "string"
        }
      ],
      "payable": false,
      "stateMutability": "view",
      "type": "function",
      "signature": "0xb289c94f"
    },
    {
      "constant": true,
      "inputs": [
        {
          "name": "i",
          "type": "uint256"
        }
      ],
      "name": "get_filename",
      "outputs": [
        {
          "name": "",
          "type": "string"
        }
      ],
      "payable": false,
      "stateMutability": "view",
      "type": "function",
      "signature": "0x8e39e57c"
    },
    {
      "constant": true,
      "inputs": [
        {
          "name": "i",
          "type": "uint256"
        }
      ],
      "name": "get_filehash",
      "outputs": [
        {
          "name": "",
          "type": "string"
        }
      ],
      "payable": false,
      "stateMutability": "view",
      "type": "function",
      "signature": "0xd8833e12"
    },
    {
      "constant": true,
      "inputs": [],
      "name": "get_length",
      "outputs": [
        {
          "name": "",
          "type": "uint256"
        }
      ],
      "payable": false,
      "stateMutability": "view",
      "type": "function",
      "signature": "0xeec37691"
    },
    {
      "constant": true,
      "inputs": [],
      "name": "get_length_text",
      "outputs": [
        {
          "name": "",
          "type": "uint256"
        }
      ],
      "payable": false,
      "stateMutability": "view",
      "type": "function",
      "signature": "0x8f25fdb8"
    },
    {
      "constant": true,
      "inputs": [],
      "name": "get_length_files",
      "outputs": [
        {
          "name": "",
          "type": "uint256"
        }
      ],
      "payable": false,
      "stateMutability": "view",
      "type": "function",
      "signature": "0x8e6d53c9"
    }
  ],
  "bytecode": "0x608060405234801561001057600080fd5b506121ce806100206000396000f3fe608060405260043610610112576000357c0100000000000000000000000000000000000000000000000000000000900463ffffffff168063035b4cbc1461011757806314feaa9d14610257578063519c6377146103975780635fff3c5f1461045f5780636b030e59146105295780636efe6078146106885780637d8aad36146107e75780638e39e57c146109275780638e6d53c9146109db5780638f25fdb814610a06578063919840ad14610a31578063a313604414610a60578063b289c94f14610bbf578063b34e97e814610c73578063bde74b5f14610d03578063c3edb3fa14610d6c578063d04ae78514610e20578063d8833e1214610ed4578063dd12cf2014610f88578063eec376911461103c575b600080fd5b34801561012357600080fd5b506101706004803603604081101561013a57600080fd5b81019080803573ffffffffffffffffffffffffffffffffffffffff16906020019092919080359060200190929190505050611067565b604051808060200180602001838103835285818151815260200191508051906020019080838360005b838110156101b4578082015181840152602081019050610199565b50505050905090810190601f1680156101e15780820380516001836020036101000a031916815260200191505b50838103825284818151815260200191508051906020019080838360005b8381101561021a5780820151818401526020810190506101ff565b50505050905090810190601f1680156102475780820380516001836020036101000a031916815260200191505b5094505050505060405180910390f35b34801561026357600080fd5b506102b06004803603604081101561027a57600080fd5b81019080803573ffffffffffffffffffffffffffffffffffffffff169060200190929190803590602001909291905050506111d7565b604051808060200180602001838103835285818151815260200191508051906020019080838360005b838110156102f45780820151818401526020810190506102d9565b50505050905090810190601f1680156103215780820380516001836020036101000a031916815260200191505b50838103825284818151815260200191508051906020019080838360005b8381101561035a57808201518184015260208101905061033f565b50505050905090810190601f1680156103875780820380516001836020036101000a031916815260200191505b5094505050505060405180910390f35b3480156103a357600080fd5b5061045d600480360360208110156103ba57600080fd5b81019080803590602001906401000000008111156103d757600080fd5b8201836020820111156103e957600080fd5b8035906020019184600183028401116401000000008311171561040b57600080fd5b91908080601f016020809104026020016040519081016040528093929190818152602001838380828437600081840152601f19601f820116905080830192505050505050509192919290505050611347565b005b34801561046b57600080fd5b506104ae6004803603602081101561048257600080fd5b81019080803573ffffffffffffffffffffffffffffffffffffffff1690602001909291905050506113f6565b6040518080602001828103825283818151815260200191508051906020019080838360005b838110156104ee5780820151818401526020810190506104d3565b50505050905090810190601f16801561051b5780820380516001836020036101000a031916815260200191505b509250505060405180910390f35b34801561053557600080fd5b506106866004803603604081101561054c57600080fd5b810190808035906020019064010000000081111561056957600080fd5b82018360208201111561057b57600080fd5b8035906020019184600183028401116401000000008311171561059d57600080fd5b91908080601f016020809104026020016040519081016040528093929190818152602001838380828437600081840152601f19601f8201169050808301925050505050505091929192908035906020019064010000000081111561060057600080fd5b82018360208201111561061257600080fd5b8035906020019184600183028401116401000000008311171561063457600080fd5b91908080601f016020809104026020016040519081016040528093929190818152602001838380828437600081840152601f19601f8201169050808301925050505050505091929192905050506114a6565b005b34801561069457600080fd5b506107e5600480360360408110156106ab57600080fd5b81019080803590602001906401000000008111156106c857600080fd5b8201836020820111156106da57600080fd5b803590602001918460018302840111640100000000831117156106fc57600080fd5b91908080601f016020809104026020016040519081016040528093929190818152602001838380828437600081840152601f19601f8201169050808301925050505050505091929192908035906020019064010000000081111561075f57600080fd5b82018360208201111561077157600080fd5b8035906020019184600183028401116401000000008311171561079357600080fd5b91908080601f016020809104026020016040519081016040528093929190818152602001838380828437600081840152601f19601f820116905080830192505050505050509192919290505050611566565b005b3480156107f357600080fd5b506108406004803603604081101561080a57600080fd5b81019080803573ffffffffffffffffffffffffffffffffffffffff16906020019092919080359060200190929190505050611626565b604051808060200180602001838103835285818151815260200191508051906020019080838360005b83811015610884578082015181840152602081019050610869565b50505050905090810190601f1680156108b15780820380516001836020036101000a031916815260200191505b50838103825284818151815260200191508051906020019080838360005b838110156108ea5780820151818401526020810190506108cf565b50505050905090810190601f1680156109175780820380516001836020036101000a031916815260200191505b5094505050505060405180910390f35b34801561093357600080fd5b506109606004803603602081101561094a57600080fd5b8101908080359060200190929190505050611796565b6040518080602001828103825283818151815260200191508051906020019080838360005b838110156109a0578082015181840152602081019050610985565b50505050905090810190601f1680156109cd5780820380516001836020036101000a031916815260200191505b509250505060405180910390f35b3480156109e757600080fd5b506109f0611895565b6040518082815260200191505060405180910390f35b348015610a1257600080fd5b50610a1b6118df565b6040518082815260200191505060405180910390f35b348015610a3d57600080fd5b50610a46611929565b604051808215151515815260200191505060405180910390f35b348015610a6c57600080fd5b50610bbd60048036036040811015610a8357600080fd5b8101908080359060200190640100000000811115610aa057600080fd5b820183602082011115610ab257600080fd5b80359060200191846001830284011164010000000083111715610ad457600080fd5b91908080601f016020809104026020016040519081016040528093929190818152602001838380828437600081840152601f19601f82011690508083019250505050505050919291929080359060200190640100000000811115610b3757600080fd5b820183602082011115610b4957600080fd5b80359060200191846001830284011164010000000083111715610b6b57600080fd5b91908080601f016020809104026020016040519081016040528093929190818152602001838380828437600081840152601f19601f82011690508083019250505050505050919291929050505061197d565b005b348015610bcb57600080fd5b50610bf860048036036020811015610be257600080fd5b8101908080359060200190929190505050611a3c565b6040518080602001828103825283818151815260200191508051906020019080838360005b83811015610c38578082015181840152602081019050610c1d565b50505050905090810190601f168015610c655780820380516001836020036101000a031916815260200191505b509250505060405180910390f35b348015610c7f57600080fd5b50610c88611b3b565b6040518080602001828103825283818151815260200191508051906020019080838360005b83811015610cc8578082015181840152602081019050610cad565b50505050905090810190601f168015610cf55780820380516001836020036101000a031916815260200191505b509250505060405180910390f35b348015610d0f57600080fd5b50610d5260048036036020811015610d2657600080fd5b81019080803573ffffffffffffffffffffffffffffffffffffffff169060200190929190505050611c1a565b604051808215151515815260200191505060405180910390f35b348015610d7857600080fd5b50610da560048036036020811015610d8f57600080fd5b8101908080359060200190929190505050611c3a565b6040518080602001828103825283818151815260200191508051906020019080838360005b83811015610de5578082015181840152602081019050610dca565b50505050905090810190601f168015610e125780820380516001836020036101000a031916815260200191505b509250505060405180910390f35b348015610e2c57600080fd5b50610e5960048036036020811015610e4357600080fd5b8101908080359060200190929190505050611d39565b6040518080602001828103825283818151815260200191508051906020019080838360005b83811015610e99578082015181840152602081019050610e7e565b50505050905090810190601f168015610ec65780820380516001836020036101000a031916815260200191505b509250505060405180910390f35b348015610ee057600080fd5b50610f0d60048036036020811015610ef757600080fd5b8101908080359060200190929190505050611e37565b6040518080602001828103825283818151815260200191508051906020019080838360005b83811015610f4d578082015181840152602081019050610f32565b50505050905090810190601f168015610f7a5780820380516001836020036101000a031916815260200191505b509250505060405180910390f35b348015610f9457600080fd5b50610fc160048036036020811015610fab57600080fd5b8101908080359060200190929190505050611f36565b6040518080602001828103825283818151815260200191508051906020019080838360005b83811015611001578082015181840152602081019050610fe6565b50505050905090810190601f16801561102e5780820380516001836020036101000a031916815260200191505b509250505060405180910390f35b34801561104857600080fd5b50611051612034565b6040518082815260200191505060405180910390f35b60026020528160005260406000208181548110151561108257fe5b906000526020600020906002020160009150915050806000018054600181600116156101000203166002900480601f01602080910402602001604051908101604052809291908181526020018280546001816001161561010002031660029004801561112f5780601f106111045761010080835404028352916020019161112f565b820191906000526020600020905b81548152906001019060200180831161111257829003601f168201915b505050505090806001018054600181600116156101000203166002900480601f0160208091040260200160405190810160405280929190818152602001828054600181600116156101000203166002900480156111cd5780601f106111a2576101008083540402835291602001916111cd565b820191906000526020600020905b8154815290600101906020018083116111b057829003601f168201915b5050505050905082565b6000602052816000526040600020818154811015156111f257fe5b906000526020600020906002020160009150915050806000018054600181600116156101000203166002900480601f01602080910402602001604051908101604052809291908181526020018280546001816001161561010002031660029004801561129f5780601f106112745761010080835404028352916020019161129f565b820191906000526020600020905b81548152906001019060200180831161128257829003601f168201915b505050505090806001018054600181600116156101000203166002900480601f01602080910402602001604051908101604052809291908181526020018280546001816001161561010002031660029004801561133d5780601f106113125761010080835404028352916020019161133d565b820191906000526020600020905b81548152906001019060200180831161132057829003601f168201915b5050505050905082565b80600460003373ffffffffffffffffffffffffffffffffffffffff1673ffffffffffffffffffffffffffffffffffffffff168152602001908152602001600020908051906020019061139a92919061207d565b506001600360003373ffffffffffffffffffffffffffffffffffffffff1673ffffffffffffffffffffffffffffffffffffffff16815260200190815260200160002060006101000a81548160ff02191690831515021790555050565b60046020528060005260406000206000915090508054600181600116156101000203166002900480601f01602080910402602001604051908101604052809291908181526020018280546001816001161561010002031660029004801561149e5780601f106114735761010080835404028352916020019161149e565b820191906000526020600020905b81548152906001019060200180831161148157829003601f168201915b505050505081565b600160003373ffffffffffffffffffffffffffffffffffffffff1673ffffffffffffffffffffffffffffffffffffffff1681526020019081526020016000206040805190810160405280848152602001838152509080600181540180825580915050906001820390600052602060002090600202016000909192909190915060008201518160000190805190602001906115419291906120fd565b50602082015181600101908051906020019061155e9291906120fd565b505050505050565b600260003373ffffffffffffffffffffffffffffffffffffffff1673ffffffffffffffffffffffffffffffffffffffff1681526020019081526020016000206040805190810160405280838152602001848152509080600181540180825580915050906001820390600052602060002090600202016000909192909190915060008201518160000190805190602001906116019291906120fd565b50602082015181600101908051906020019061161e9291906120fd565b505050505050565b60016020528160005260406000208181548110151561164157fe5b906000526020600020906002020160009150915050806000018054600181600116156101000203166002900480601f0160208091040260200160405190810160405280929190818152602001828054600181600116156101000203166002900480156116ee5780601f106116c3576101008083540402835291602001916116ee565b820191906000526020600020905b8154815290600101906020018083116116d157829003601f168201915b505050505090806001018054600181600116156101000203166002900480601f01602080910402602001604051908101604052809291908181526020018280546001816001161561010002031660029004801561178c5780601f106117615761010080835404028352916020019161178c565b820191906000526020600020905b81548152906001019060200180831161176f57829003601f168201915b5050505050905082565b6060600260003373ffffffffffffffffffffffffffffffffffffffff1673ffffffffffffffffffffffffffffffffffffffff168152602001908152602001600020828154811015156117e457fe5b90600052602060002090600202016000018054600181600116156101000203166002900480601f0160208091040260200160405190810160405280929190818152602001828054600181600116156101000203166002900480156118895780601f1061185e57610100808354040283529160200191611889565b820191906000526020600020905b81548152906001019060200180831161186c57829003601f168201915b50505050509050919050565b6000600260003373ffffffffffffffffffffffffffffffffffffffff1673ffffffffffffffffffffffffffffffffffffffff16815260200190815260200160002080549050905090565b6000600160003373ffffffffffffffffffffffffffffffffffffffff1673ffffffffffffffffffffffffffffffffffffffff16815260200190815260200160002080549050905090565b6000600360003373ffffffffffffffffffffffffffffffffffffffff1673ffffffffffffffffffffffffffffffffffffffff16815260200190815260200160002060009054906101000a900460ff16905090565b6000803373ffffffffffffffffffffffffffffffffffffffff1673ffffffffffffffffffffffffffffffffffffffff168152602001908152602001600020604080519081016040528084815260200183815250908060018154018082558091505090600182039060005260206000209060020201600090919290919091506000820151816000019080519060200190611a179291906120fd565b506020820151816001019080519060200190611a349291906120fd565b505050505050565b6060600160003373ffffffffffffffffffffffffffffffffffffffff1673ffffffffffffffffffffffffffffffffffffffff16815260200190815260200160002082815481101515611a8a57fe5b90600052602060002090600202016001018054600181600116156101000203166002900480601f016020809104026020016040519081016040528092919081815260200182805460018160011615610100020316600290048015611b2f5780601f10611b0457610100808354040283529160200191611b2f565b820191906000526020600020905b815481529060010190602001808311611b1257829003601f168201915b50505050509050919050565b6060600460003373ffffffffffffffffffffffffffffffffffffffff1673ffffffffffffffffffffffffffffffffffffffff1681526020019081526020016000208054600181600116156101000203166002900480601f016020809104026020016040519081016040528092919081815260200182805460018160011615610100020316600290048015611c105780601f10611be557610100808354040283529160200191611c10565b820191906000526020600020905b815481529060010190602001808311611bf357829003601f168201915b5050505050905090565b60036020528060005260406000206000915054906101000a900460ff1681565b6060600160003373ffffffffffffffffffffffffffffffffffffffff1673ffffffffffffffffffffffffffffffffffffffff16815260200190815260200160002082815481101515611c8857fe5b90600052602060002090600202016000018054600181600116156101000203166002900480601f016020809104026020016040519081016040528092919081815260200182805460018160011615610100020316600290048015611d2d5780601f10611d0257610100808354040283529160200191611d2d565b820191906000526020600020905b815481529060010190602001808311611d1057829003601f168201915b50505050509050919050565b60606000803373ffffffffffffffffffffffffffffffffffffffff1673ffffffffffffffffffffffffffffffffffffffff16815260200190815260200160002082815481101515611d8657fe5b90600052602060002090600202016001018054600181600116156101000203166002900480601f016020809104026020016040519081016040528092919081815260200182805460018160011615610100020316600290048015611e2b5780601f10611e0057610100808354040283529160200191611e2b565b820191906000526020600020905b815481529060010190602001808311611e0e57829003601f168201915b50505050509050919050565b6060600260003373ffffffffffffffffffffffffffffffffffffffff1673ffffffffffffffffffffffffffffffffffffffff16815260200190815260200160002082815481101515611e8557fe5b90600052602060002090600202016001018054600181600116156101000203166002900480601f016020809104026020016040519081016040528092919081815260200182805460018160011615610100020316600290048015611f2a5780601f10611eff57610100808354040283529160200191611f2a565b820191906000526020600020905b815481529060010190602001808311611f0d57829003601f168201915b50505050509050919050565b60606000803373ffffffffffffffffffffffffffffffffffffffff1673ffffffffffffffffffffffffffffffffffffffff16815260200190815260200160002082815481101515611f8357fe5b90600052602060002090600202016000018054600181600116156101000203166002900480601f0160208091040260200160405190810160405280929190818152602001828054600181600116156101000203166002900480156120285780601f10611ffd57610100808354040283529160200191612028565b820191906000526020600020905b81548152906001019060200180831161200b57829003601f168201915b50505050509050919050565b60008060003373ffffffffffffffffffffffffffffffffffffffff1673ffffffffffffffffffffffffffffffffffffffff16815260200190815260200160002080549050905090565b828054600181600116156101000203166002900490600052602060002090601f016020900481019282601f106120be57805160ff19168380011785556120ec565b828001600101855582156120ec579182015b828111156120eb5782518255916020019190600101906120d0565b5b5090506120f9919061217d565b5090565b828054600181600116156101000203166002900490600052602060002090601f016020900481019282601f1061213e57805160ff191683800117855561216c565b8280016001018555821561216c579182015b8281111561216b578251825591602001919060010190612150565b5b509050612179919061217d565b5090565b61219f91905b8082111561219b576000816000905550600101612183565b5090565b9056fea165627a7a72305820163cb45d2568905b63bc3d83f8e20b7a3980a296ab74faa750761987065513e10029",
  "source": "pragma solidity 0.5.0;\r\n\r\ncontract Main{\r\n\t\r\n\tstruct User{\r\n\tstring account_name;\r\n\tstring password;\r\n\t}\r\n\r\n\tstruct User2{\r\n\t\tstring title;\r\n\t\tstring text;\r\n\t}\r\n\r\n\tstruct User3{\r\n\t\tstring name;\r\n\t\tstring hash;\r\n\t}\r\n\r\n\tmapping(address=>User[]) public user;\r\n\tmapping(address=>User2[]) public user2;\r\n\tmapping(address=>User3[]) public user3; \r\n\tmapping(address=>bool) public user_check;\r\n\tmapping(address=>string) public user_login;\r\n\r\n\tfunction signup(string memory _password) public{\r\n\t\tuser_login[msg.sender] = _password;\r\n\t\tuser_check[msg.sender] = true;\r\n\t}\r\n\r\n\tfunction login() public view returns(string memory){\r\n\t\treturn user_login[msg.sender];\r\n\t}\r\n\t \r\n\tfunction add_id(string memory _name, string memory _id) public{\r\n\t\t\r\n\t\tuser[msg.sender].push(User(_name, _id));\r\n\t}\r\n\r\n\tfunction add_text(string memory _title, string memory _text) public{\r\n\t\tuser2[msg.sender].push(User2(_title, _text));\r\n\t}\r\n\r\n\tfunction add_files(string memory _hash, string memory _name) public{\r\n\t\tuser3[msg.sender].push(User3(_name, _hash));\r\n\t}\r\n\r\n\tfunction check() public view returns(bool){\r\n\t\treturn user_check[msg.sender];\t\r\n\t}\r\n\r\n\r\n\tfunction get_accountname(uint i) public view returns(string memory){\t\t\r\n\t\treturn user[msg.sender][i].account_name;\r\n\t}\r\n\r\n\tfunction get_password(uint i) public view returns(string memory){\t\t\r\n\t\treturn user[msg.sender][i].password;\r\n\t}\r\n\t\r\n\tfunction get_title(uint i) public view returns(string memory){\t\t\r\n\t\treturn user2[msg.sender][i].title;\r\n\t}\r\n\r\n\tfunction get_text(uint i) public view returns(string memory){\t\t\r\n\t\treturn user2[msg.sender][i].text;\r\n\t}\r\n\t\tfunction get_filename(uint i) public view returns(string memory){\t\t\r\n\t\treturn user3[msg.sender][i].name;\r\n\t}\r\n\r\n\tfunction get_filehash(uint i) public view returns(string memory){\t\t\r\n\t\treturn user3[msg.sender][i].hash;\r\n\t}\r\n\t\r\n\tfunction get_length()public view returns(uint){\r\n\t\treturn user[msg.sender].length;\r\n\t}\r\n\t\tfunction get_length_text()public view returns(uint){\r\n\t\treturn user2[msg.sender].length;\r\n\t}\r\n\t\tfunction get_length_files()public view returns(uint){\r\n\t\treturn user3[msg.sender].length;\r\n\t}\r\n}",
  "sourcePath": "/mnt/c/Users/dhanush/Downloads/Secure-data-storage_v2/contracts/Main.sol",
  "compiler": {
    "name": "solc",
    "version": "0.5.0+commit.1d4f565a.Emscripten.clang"
  },
  "schemaVersion": "3.0.1",
  "updatedAt": "2019-02-14T10:27:21.360Z",
  "devdoc": {
    "methods": {}
  },
  "userdoc": {
    "methods": {}
  }
}